:020000040800F2
:10000000780600202902000865020008670200083F
:10001000690200086B0200086D0200080000000081
:100020000000000000000000000000006F02000857
:100030007102000800000000730200087502000849
:1000400077020008770200087702000877020008AC
:10005000770200087702000877020008770200089C
:10006000770200087702000877020008770200088C
:10007000770200087702000877020008770200087C
:10008000770200087702000877020008770200086C
:10009000770200087702000877020008770200085C
:1000A000770200087702000877020008770200084C
:1000B000770200087702000877020008770200083C
:1000C000770200087702000877020008770200082C
:1000D000770200087702000877020008770200081C
:1000E000770200087702000877020008770200080C
:1000F00077020008770200087702000877020008FC
:1001000077020008770200087702000877020008EB
:1001100077020008770200087702000877020008DB
:1001200077020008770200087702000877020008CB
:1001300077020008770200087702000877020008BB
:1001400077020008770200087702000877020008AB
:10015000770200087702000877020008770200089B
:10016000770200087702000877020008770200088B
:1001700077020008770200087702000800000000FC
:10018000770200087702000800F002F800F03CF85F
:100190000AA090E8000C82448344AAF10107DA45E2
:1001A00001D100F031F8AFF2090EBAE80F0013F0F8
:1001B000010F18BFFB1A43F001031847D4080000D1
:1001C000F4080000103A24BF78C878C1FAD8520762
:1001D00024BF30C830C144BF04680C6070470000C1
:1001E0000023002400250026103A28BF78C1FBD840
:1001F000520728BF30C148BF0B6070471FB500F0E1
:1002000041FC1FBD10B510BD00F053F81146FFF7BB
:10021000F5FF00F033FA00F071F803B4FFF7F2FFD6
:1002200003BC00F079F8000016481749174B9942B3
:100230003CBF50F8042B41F8042BF8D314494FF07D
:1002400000028B4238BF43F8042BFAD3DFF8440096
:10025000016841F470010160BFF34F8FBFF36F8FEE
:100260000D480047FEE7FEE7FEE7FEE7FEE7FEE794
:10027000FEE7FEE7FEE7FEE708480949094A0A4BA0
:1002800070470000B00A00080000002008000020AD
:100290007806002088ED00E0890100087800002041
:1002A000780600207802002078020020704770470E
:1002B0007047754600F02CF8AE4605006946534677
:1002C00020F00700854618B020B5FFF7D5FFBDE840
:1002D00020404FF000064FF000074FF000084FF0AD
:1002E000000B21F00701AC46ACE8C009ACE8C0093E
:1002F000ACE8C009ACE8C0098D46704710B50446AB
:10030000AFF300802046BDE81040FFF786BF000035
:10031000004870471400002001491820ABBEFEE7DA
:1003200026000200704700005E49096821F00701BD
:100330005C4A11601146096841F0020111605A4996
:10034000096841F48071584A116000BF5649096834
:1003500001F480610029F9D010205349496821F047
:10036000F851514A51601146496841EA00615160B3
:100370001146096821F08071116000BF4A4909687F
:1003800001F00071B1F1007FF8D04749C96821F050
:100390000301454AD1601146C96841F00201D160AC
:1003A0001146C96821F4FE4141F4A051D1601146C3
:1003B000C96821F0700141F01001D1601146C9688F
:1003C00021F0C061D1601146C96841F08071D160EF
:1003D0001146096841F08071116000BF3249096817
:1003E00001F000710029F9D02F49896821F003013B
:1003F0002D4A91601146896841F00301916000BF68
:100400002949896801F00C010C29F9D1264989682C
:1004100021F0F001244A91601146896821F4E061DD
:1004200091601146896821F4605191601146096814
:1004300021F08061116000BF1B49096801F08061F3
:10044000B1F1806FF8D01849096921F4FE41164ACC
:1004500011611146096941F4C051116111460969E0
:1004600041F4003111611146096941F48031116193
:100470001146096841F08061116000BF0A490968AE
:1004800001F080610029F9D007498831096821F419
:100490004001054AC2F888101146096E41F4001166
:1004A0001166704700200240001002401A48C06CDC
:1004B00040F008001849C8641848006820F47050DB
:1004C000164908600846006840F420500860134848
:1004D0002030006840F0EE601049203108600F487D
:1004E0000830006840F470500C4908310860081D5D
:1004F000006820F47050091D08600846006840F448
:10050000A05008600548001D006820F06000034905
:10051000091D08607047000000100240000C0048F0
:1005200000B50D48806D40F400300B4988650A48DD
:100530008830006820F00C00C1F888000846D0F828
:10054000880040F00400C1F88800FFF7AFFF0348BF
:1005500000F010F800BD0000001002400044004010
:10056000642242430723B2FBF3F100BF4A1E111E6F
:10057000FCD17047016821F001010160016821F0A0
:1005800010210160016821F400410160416821F4FB
:100590004051416042F28D01C160016841F00C019F
:1005A00001601E4988421BD1016841F020010160B1
:1005B000016821F040010160016821F01001016033
:1005C000016821F080010160016821F480710160FF
:1005D000016821F040010160016821F00101016022
:1005E0000F49884209D1016A41F0400101620D4979
:1005F000096841F0C0010B4A1160016841F0010136
:10060000016000BFC16901F400110029FAD000BFE8
:10061000C16901F480010029FAD07047004C004004
:10062000004400400838014001460020CA6902F039
:1006300020020AB18A8CD0B27047F0B504460E464B
:10064000174600250CE000BFE06900F0800000289C
:10065000FAD0705D20854FF49670FFF781FF6D1C16
:10066000BD42F0D300BFE06900F040000028FAD09E
:10067000E06920F04000E061F0BD000010B5FFF738
:1006800053FEFFF74DFF00F0CEF90C2206A10A48F9
:10069000FFF7D3FF022209A10748FFF7CEFF00F0C2
:1006A00087F8002010BD000050726F6A65637420E7
:1006B00032410D0A00000000004400400D3E0000E1
:1006C00038B50024002000902648FFF7ADFF0090C9
:1006D000009820B1042269462248FFF7AEFF009837
:1006E0006C2802D000984C2801D1022438E00098F0
:1006F000722802D00098522801D1032430E00098DB
:10070000702802D00098502801D1012428E00098D8
:10071000782802D00098582801D1072420E00098BA
:100720006E2802D000984E2801D1002418E00098CD
:10073000622802D00098422801D1042410E00098D9
:10074000632802D00098432801D1052408E00098CE
:100750000D2805D10624032203A10248FFF76DFFEF
:10076000204638BD004400400D0A3E00002000BF76
:1007700018E0002100EB80020C4B9954022100EBA1
:1007800080021A445170002100EB80021A44D1709B
:1007900000EB80021A44917000EB80021A44117140
:1007A000411CC8B20228E4DB7047000008000020AA
:1007B00000250024FFF7DAFF15E0FFF781FF06466A
:1007C000304600F013F805465DB1002407E0012033
:1007D00004EB8401044A1144C870601CC4B2022CAA
:1007E000F5DB00F063F8E8E7080000200146002090
:1007F000062904D11C4A1278022A00DB01200029B4
:1008000019DD062917DA184A1278022A05DA164A7B
:100810001278521C144B1A7006E0134A1278022AFE
:1008200002DD0022104B1A700F4A127802EB82028E
:100830000E4B1A449170072914D100220A4B1A70EA
:100840001A700BE0084A127802EB8202074B1A4436
:100850009170054A1278521C034B1A70024A1278A2
:10086000022AEFDB7047000005000020080000208E
:10087000002000BF15E000EB80020B4B1A4491787A
:1008800006290AD2DFE801F003040506070805E09F
:1008900004E003E002E001E000E000BF00BF421C12
:1008A000D0B20228E7DB70470800002010B5002412
:1008B0000F48007820B1012803D0022815D111E09B
:1008C00014E004EB84000B4908444078022808D166
:1008D00004EB84000844C078012802D102200449B6
:1008E000087003E0FFF7C4FF00E000BF00BF10BDC9
:1008F00000000020080000204FF08040406940F0D8
:1009000001004FF0804148617047000000B54FF092
:10091000804080691D4908404FF080418861084649
:10092000806940F0600088610846806940F00800F6
:1009300088610846006840F0800008600846006A48
:1009400020F0020008620846006A40F001000862D8
:10095000084680690E4908404FF08041886108468A
:10096000806940F4C04088610846806940F40060B6
:1009700088610846006A20F0200008620846006A84
:1009800040F010000862FFF7B7FF00BD8FFFFEFFC9
:10099000FF8FFFFE0C48C06C40F001000A49C8649C
:1009A0004FF09040006820F003004FF09041086045
:1009B0000846006840F0020008600846006A40F0FF
:1009C0000100086270470000001002404FF09040A4
:1009D000006820F00C004FF0904108600846006865
:1009E00040F0080008600846006A40F01000086205
:1009F0007047000000B50648806D40F001000449D2
:100A000088654FF4FA5001068862FFF775FF00BD54
:100A1000001002404FF08040006840F001004FF0AD
:100A200080410860704700B5FFF7B4FFFFF7CEFFC5
:100A3000FFF7E0FFFFF76AFFFFF7ECFFC82000F0C9
:100A400009F80421002000F00EF80421012000F034
:100A50000AF800BD00B5024613464FF08040C3625D
:100A6000FFF74AFF00BD10B502460C46234612B9F7
:100A70004FF080404363012A01D190078363FFF761
:100A80003BFF10BD4FF04070E1EE100A70470000D0
:100A9000B00A00080000002008000000C40100089F
:100AA000B80A00080800002070060000E0010008F5
:080AB000000106030000000034
:040000050800018965
:00000001FF
