:020000040800F2
:100000006006002015020008510200085302000893
:1000100055020008570200085902000800000000BD
:100020000000000000000000000000005B0200086B
:100030005D020008000000005F0200086102000885
:1000400063020008630200086302000863020008FC
:1000500063020008630200086302000863020008EC
:1000600063020008630200086302000863020008DC
:1000700063020008630200086302000863020008CC
:1000800063020008630200086302000863020008BC
:1000900063020008630200086302000863020008AC
:1000A000630200086302000863020008630200089C
:1000B000630200086302000863020008630200088C
:1000C000630200086302000863020008630200087C
:1000D000630200086302000863020008630200086C
:1000E000630200086302000863020008630200085C
:1000F000630200086302000863020008630200084C
:10010000630200086302000863020008630200083B
:10011000630200086302000863020008630200082B
:10012000630200086302000863020008630200081B
:10013000630200086302000863020008630200080B
:1001400063020008630200086302000863020008FB
:1001500063020008630200086302000863020008EB
:1001600063020008630200086302000863020008DB
:100170006302000863020008630200080000000038
:10018000630200086302000800F002F800F033F890
:100190000AA090E8000C82448344AAF10107DA45E2
:1001A00001D100F028F8AFF2090EBAE80F0013F001
:1001B000010F18BFFB1A43F0010318473C0A000067
:1001C0004C0A00000023002400250026103A28BF16
:1001D00078C1FBD8520728BF30C148BF0B607047B9
:1001E000752900F0A180002070471FB500F0FFFCCA
:1001F0001FBD10B510BD00F04CF91146FFF7F5FF1B
:1002000000F0AAFB00F06AF903B4FFF7F2FF03BCA9
:1002100000F072F916481749174B99423CBF50F845
:10022000042B41F8042BF8D314494FF000028B4201
:1002300038BF43F8042BFAD3DFF84400016841F4D7
:1002400070010160BFF34F8FBFF36F8F0D48004700
:10025000FEE7FEE7FEE7FEE7FEE7FEE7FEE7FEE776
:10026000FEE7FEE708480949094A0A4B70470000C3
:10027000080C00080000002000000020600600209C
:1002800088ED00E089010008600000206006002081
:1002900060020020600200200FB41CB5074B06AAC4
:1002A0007B4469460090059800F0DBF80020694621
:1002B00000F0EAF81CBC5DF814FB0000E50100004A
:1002C0002DE9F0410E460446002020622046E168F8
:1002D000884730B3252805D0D4E901219047206A0A
:1002E000401CF2E7E168204600278847050018D047
:1002F000A5F14100192802D820354FF40067324695
:10030000294620462760FFF76BFF40B1012804D043
:10031000F61D26F007060836D8E7361DD6E728462C
:10032000DAE7206ABDE8F0812DE9F04106460024B5
:1003300010687529314616A510D0AFF3008000284B
:1003400002DA404213A507E031688A0701D512A5F9
:1003500002E0490704D511A5012401E0AFF30080B4
:1003600000210A2206F1240709E0B0FBF2FCB0FBF1
:10037000F2F302FB1C00303078541846491C002868
:10038000F3D123462A463046BDE8F04100F00BB8D1
:10039000000000002D0000002B00000020000000E5
:1003A0007047704770472DE9F0470D4699469246D1
:1003B000044600F124080168880604D5E06921F0AC
:1003C0001001216000E00120A84201DD471B00E090
:1003D0000027A1697A1902EB0900081AA0612078A8
:1003E000C00602D42046AFF30080002608E0D4E91E
:1003F00001211AF806009047206A401C761C2062F2
:100400004E45F4DB2078C0060AD52046AFF30080C5
:1004100006E0D4E9012130209047206A401C206288
:10042000381EA7F10107F4DC07E0D4E9012118F830
:1004300005009047206A401C2062281EA5F1010596
:10044000F3DC2046AFF300802078000602D50220BE
:10045000BDE8F0870120FBE701694A1C02610878CA
:10046000704700B58FB0CDE90131002105910549F4
:100470007944CDE9031011466846FFF721FF0FB01C
:1004800000BD0000E5FFFFFF0A6802F8010B0A60EB
:100490007047754600F02CF8AE4605006946534695
:1004A00020F00700854618B020B5FFF7DBFEBDE859
:1004B00020404FF000064FF000074FF000084FF0CB
:1004C000000B21F00701AC46ACE8C009ACE8C0095C
:1004D000ACE8C009ACE8C0098D46704710B50446C9
:1004E000AFF300802046BDE81040FFF78DBE00004E
:1004F000004870470000002001491820ABBEFEE70D
:1005000026000200704700000348406940F48070F4
:100510000149486170470000001000482348C06C42
:1005200040F012002149C8646FF030002049086093
:100530000846006840F0100008601D480830006858
:1005400020F030001A49083108600846006840F081
:1005500030000860081F006820F00400091F0860D0
:1005600013480C30006820F0300011490C3108604D
:100570006FF440300F4908600846006840F480304E
:1005800008600846806820F440308860084680682B
:1005900040F4403088600846406820F4807048602D
:1005A0000846C06820F44030C86070470010024020
:1005B00000040048001000485E49096821F0070166
:1005C0005C4A11601146096841F0020111605A4904
:1005D000096841F48071584A116000BF56490968A2
:1005E00001F480610029F9D010205349496821F0B5
:1005F000F851514A51601146496841EA0061516021
:100600001146096821F08071116000BF4A490968EC
:1006100001F00071B1F1007FF8D04749C96821F0BD
:100620000301454AD1601146C96841F00201D16019
:100630001146C96821F4FE4141F4A051D160114630
:10064000C96821F0700141F01001D1601146C968FC
:1006500021F0C061D1601146C96841F08071D1605C
:100660001146096841F08071116000BF3249096884
:1006700001F000710029F9D02F49896821F00301A8
:100680002D4A91601146896841F00301916000BFD5
:100690002949896801F00C010C29F9D1264989689A
:1006A00021F0F001244A91601146896821F4E0614B
:1006B00091601146896821F4605191601146096882
:1006C00021F08061116000BF1B49096801F0806161
:1006D000B1F1806FF8D01849096921F4FE41164A3A
:1006E00011611146096941F4C0511161114609694E
:1006F00041F4003111611146096941F48031116101
:100700001146096841F08061116000BF0A4909681B
:1007100001F080610029F9D007498831096821F486
:100720004001054AC2F888101146096E41F40011D3
:100730001166704700200240001002401A48C06C49
:1007400040F008001849C8641848006820F4705048
:10075000164908600846006840F4205008601348B5
:100760002030006840F0EE601049203108600F48EA
:100770000830006840F470500C4908310860081DCA
:10078000006820F47050091D08600846006840F4B5
:10079000A05008600548001D006820F06000034973
:1007A000091D08607047000000100240000C00485E
:1007B00000B50D48806D40F400300B4988650A484B
:1007C0008830006820F00C00C1F888000846D0F896
:1007D000880040F00400C1F88800FFF7AFFF03482D
:1007E00000F010F800BD000000100240004400407E
:1007F000642242430723B2FBF3F100BF4A1E111EDD
:10080000FCD17047016821F001010160016821F00D
:1008100010210160016821F400410160416821F468
:100820004051416042F28D01C160016841F00C010C
:1008300001601E4988421BD1016841F0200101601E
:10084000016821F040010160016821F010010160A0
:10085000016821F080010160016821F4807101606C
:10086000016821F040010160016821F0010101608F
:100870000F49884209D1016A41F0400101620D49E6
:10088000096841F0C0010B4A1160016841F00101A3
:10089000016000BFC16901F400110029FAD000BF56
:1008A000C16901F480010029FAD07047004C004072
:1008B0000044004008380140F0B504460E46174693
:1008C00000250CE000BFE06900F080000028FAD0AD
:1008D000705D20854FF49670FFF78AFF6D1CBD4256
:1008E000F0D300BFE06900F040000028FAD0E069D2
:1008F00020F04000E061F0BDF0B50020154F3F69E9
:1009000007F40041134F3F6907F48042114F3F69DC
:1009100007F400530F4F3F6907F480540D4F3F69B0
:1009200007F480660B4F3F6907F40065002900DD7E
:10093000401C002A00DD801C002B00DD001D002C67
:1009400000DD0830002E00DD1030002D00DD2030ED
:10095000F0BD0000001000482DE9FE4301260027ED
:100960000025FFF729FEFFF723FFFFF7D7FD00F073
:100970001AF900F0EDF80C2222A12648FFF79CFF9F
:10098000022225A12348FFF797FF35E04FF0904062
:10099000006900F0010050B1FFF7B6FD012700BF6C
:1009A0004FF09040006900F001000028F8D1012FBD
:1009B00022D1FFF7A1FF8046404600F03AF80446F6
:1009C000E0B200F00BF90020009001900290224666
:1009D00012A16846FFF760FC062211A10D48FFF73F
:1009E0006BFF0A2269460B48FFF766FF002500E00F
:1009F0006D1C0D488542FBDB002EC7D1002000F0A6
:100A000015B8000050726F6A6563742032410D0A98
:100A100000000000004400400D3E0000257500006D
:100A20000D0A41443A200000E016040006BCBDE86F
:100A3000F88301460846042801DA042002E0182859
:100A400000DD182070474FF08040406940F0010001
:100A50004FF080414861704700B54FF08040806999
:100A60001D4908404FF0804188610846806940F088
:100A7000600088610846806940F008008861084687
:100A8000006840F0800008600846006A20F002001C
:100A900008620846006A40F0010008620846806962
:100AA0000E4908404FF0804188610846806940F453
:100AB000C04088610846806940F40060886108464B
:100AC000006A20F0200008620846006A40F010002A
:100AD0000862FFF7B8FF00BD8FFFFEFFFF8FFFFE2C
:100AE0001048C06C40F001000E49C8644FF09040BF
:100AF000006820F003004FF090410860084600684D
:100B000020F0020008600846006A08620846C068D3
:100B100020F00300C8600846C06840F00200C860CA
:100B200070470000001002404FF09040006820F035
:100B30000C004FF0904108600846006840F0080043
:100B400008600846006A40F0100008627047000024
:100B50000648C06C40F010000449C86404480068AE
:100B6000C0F3130002490860704700000010024003
:100B70000010004800B50648806D40F001000449AF
:100B800088654FF4FA5001068862FFF75CFF00BDEC
:100B9000001002404FF08040006840F001004FF02C
:100BA00080410860704700B5FFF79AFFFFF7BCFF70
:100BB000FFF7E0FFFFF750FFFFF7ECFFC82000F062
:100BC00004F8042000F00AF800BD00B50246134600
:100BD0004FF08040C362FFF736FF00BD00B502460C
:100BE00013464FF080408363FFF72DFF00BD4FF0A9
:100BF0004070E1EE100A7047080C00080000002069
:080C000060060000C4010008B9
:040000050800018965
:00000001FF
