:020000040800F2
:1000000068060020450200088102000883020008FB
:10001000850200088702000889020008000000002D
:100020000000000000000000000000008B0200083B
:100030008D020008000000008F02000891020008F5
:10004000930200089302000893020008930200083C
:10005000930200089302000893020008930200082C
:10006000930200089302000893020008930200081C
:10007000930200089302000893020008930200080C
:1000800093020008930200089302000893020008FC
:1000900093020008930200089302000893020008EC
:1000A00093020008930200089302000893020008DC
:1000B00093020008930200089302000893020008CC
:1000C00093020008930200089302000893020008BC
:1000D00093020008930200089302000893020008AC
:1000E000930200089302000893020008930200089C
:1000F000930200089302000893020008930200088C
:10010000930200089302000893020008930200087B
:10011000930200089302000893020008930200086B
:10012000930200089302000893020008930200085B
:10013000930200089302000893020008930200084B
:10014000930200089302000893020008930200083B
:10015000930200089302000893020008930200082B
:10016000930200089302000893020008930200081B
:1001700093020008930200089302000800000000A8
:10018000930200089302000800F002F800F04AF819
:100190000AA090E8000C82448344AAF10107DA45E2
:1001A00001D100F03FF8AFF2090EBAE80F0013F0EA
:1001B000010F18BFFB1A43F0010318478C0E000013
:1001C000AC0E0000103A24BF78C878C1FAD85207A4
:1001D00024BF30C830C144BF04680C6070470000C1
:1001E0000023002400250026103A28BF78C1FBD840
:1001F000520728BF30C148BF0B607047752900F017
:10020000AB80002070471FB500F018FF00F01CFA0B
:1002100004000020002100F0FBFE401C60601FBDB8
:1002200010B510BD00F022FA1146FFF7ECFF00F008
:1002300063FD00F040FA03B4FFF7F2FF03BC00F0E7
:1002400083FA000016481749174B99423CBF50F8F3
:10025000042B41F8042BF8D314494FF000028B42D1
:1002600038BF43F8042BFAD3DFF84400016841F4A7
:1002700070010160BFF34F8FBFF36F8F0D480047D0
:10028000FEE7FEE7FEE7FEE7FEE7FEE7FEE7FEE746
:10029000FEE7FEE708480949094A0A4B7047000093
:1002A00078110008000000200800002068060020E7
:1002B00088ED00E089010008680000206806002041
:1002C00068020020680200200FB41CB5074B06AA84
:1002D0007B4469460090059800F047F90020694684
:1002E00000F056F91CBC5DF814FB0000BD020000D4
:1002F0002DE9F0410E460446002020622046E168C8
:10030000884730B3252805D0D4E901219047206AD9
:10031000401CF2E7E168204600278847050018D016
:10032000A5F14100192802D820354FF40067324664
:10033000294620462760FFF761FF40B1012804D01D
:10034000F61D26F007060836D8E7361DD6E72846FC
:10035000DAE7206ABDE8F0812DE9F0410646002485
:1003600010687529314616A510D0AFF3008000281B
:1003700002DA404213A507E031688A0701D512A5C9
:1003800002E0490704D511A5012401E0AFF3008084
:1003900000210A2206F1240709E0B0FBF2FCB0FBC1
:1003A000F2F302FB1C00303078541846491C002838
:1003B000F3D123462A463046BDE8F04100F076B836
:1003C000000000002D0000002B00000020000000B5
:1003D0002DE9F04791460F4680460446002614F862
:1003E000015B2DB100F056F80068405DC007F6D102
:1003F0002B2D02D02D2D18D0641E4A46394620469A
:1004000000F0CBF827B13968A14201D1C7F80080CC
:100410004FF0020471050BD54042002803DD00F0C7
:1004200041F80460A007BDE8F08746F48066E4E781
:100430000028F8DA00F036F804606FF00040F2E7C8
:100440004FF0000200B5134694469646203922BF6D
:10045000A0E80C50A0E80C50B1F12001BFF4F7AFB8
:10046000090728BFA0E80C5048BF0CC05DF804EB9A
:10047000890028BF40F8042B08BF704748BF20F808
:10048000022B11F0804F18BF00F8012B7047704706
:100490007047704710B500F0D7F8001D10BD00BFC1
:1004A000710B000000487047080000202DE9F0475C
:1004B0000D4699469246044600F1240801688806D4
:1004C00004D5E06921F01001216000E00120A8427C
:1004D00001DD471B00E00027A1697A1902EB090042
:1004E000081AA0612078C00602D42046AFF300802D
:1004F000002608E0D4E901211AF806009047206A96
:10050000401C761C20624E45F4DB2078C0060AD5DC
:100510002046AFF3008006E0D4E901213020904767
:10052000206A401C2062381EA7F10107F4DC07E0B6
:10053000D4E9012118F805009047206A401C206288
:10054000281EA5F10105F3DC2046AFF300802078DA
:10055000000602D50220BDE8F0870120FBE700007D
:1005600001694A1C02610878704700B58FB0CDE977
:1005700001310021059105497944CDE90310114667
:100580006846FFF7B5FE0FB000BD0000E5FFFFFFB6
:100590000A6802F8010B0A6070472DE9F05F824695
:1005A00015468B4600270AF10104B9460078302829
:1005B00001D09DB113E014F8010B0127782803D076
:1005C000582801D045B10AE00DB1102D07D1002700
:1005D00014F8010B102502E0082500E00A2500268A
:1005E000B0460EE005FB080005FB06F101271FFAE7
:1005F00080F801EB1046B6F5803F00D3B94614F8F9
:10060000010B294600F024F80028EBDABBF1000FBB
:1006100005D00FB1641E00E05446CBF80040B9F19C
:10062000000F06D0FFF73EFF02210160C81E00F058
:1006300003B848EA0640FAE730BCBDE8C09F0000B6
:10064000004870470800002000487047280000203C
:100650003A2800D2303820F02002412A01D3A2F1FA
:100660003700884201D34FF0FF3070477546FFF7DF
:10067000E7FFAE4605006946534620F00700854671
:1006800018B020B5FFF706FEBDE820404FF0000689
:100690004FF000074FF000084FF0000B21F007016A
:1006A000AC46ACE8C009ACE8C009ACE8C009ACE8AD
:1006B000C0098D46704710B50446AFF30080204650
:1006C000BDE81040FFF7B7BD4FF0013C50F8042BD8
:1006D00051F8043B9A4221D1A2EB0C03934313EA55
:1006E000CC1317D150F8042B51F8043B9A4215D182
:1006F000A2EB0C03934313EACC130BD150F8042B59
:1007000051F8043B9A4209D1A2EB0C03934313EA3C
:10071000CC13DBD04FF00000704700BFD01A01BAF5
:10072000B1FA81F101F0180122FA01F0CB40C1F1D8
:100730002001DBB2C0B2C01A2CFA01F3D11A9143E6
:1007400011EAC311E6D1704701491820ABBEFEE79C
:100750002600020070474FF08040406940F00100E1
:100760004FF08041486170475E49096821F00701F8
:100770005C4A11601146096841F0020111605A4952
:10078000096841F48071584A116000BF56490968F0
:1007900001F480610029F9D010205349496821F003
:1007A000F851514A51601146496841EA006151606F
:1007B0001146096821F08071116000BF4A4909683B
:1007C00001F00071B1F1007FF8D04749C96821F00C
:1007D0000301454AD1601146C96841F00201D16068
:1007E0001146C96821F4FE4141F4A051D16011467F
:1007F000C96821F0700141F01001D1601146C9684B
:1008000021F0C061D1601146C96841F08071D160AA
:100810001146096841F08071116000BF32490968D2
:1008200001F000710029F9D02F49896821F00301F6
:100830002D4A91601146896841F00301916000BF23
:100840002949896801F00C010C29F9D126498968E8
:1008500021F0F001244A91601146896821F4E06199
:1008600091601146896821F46051916011460968D0
:1008700021F08061116000BF1B49096801F08061AF
:10088000B1F1806FF8D01849096921F4FE41164A88
:1008900011611146096941F4C0511161114609699C
:1008A00041F4003111611146096941F4803111614F
:1008B0001146096841F08061116000BF0A4909686A
:1008C00001F080610029F9D007498831096821F4D5
:1008D0004001054AC2F888101146096E41F4001122
:1008E0001166704700200240001002401A48C06C98
:1008F00040F008001849C8641848006820F4705097
:10090000164908600846006840F420500860134803
:100910002030006840F0EE601049203108600F4838
:100920000830006840F470500C4908310860081D18
:10093000006820F47050091D08600846006840F403
:10094000A05008600548001D006820F060000349C1
:10095000091D08607047000000100240000C0048AC
:1009600000B50D48806D40F400300B4988650A4899
:100970008830006820F00C00C1F888000846D0F8E4
:10098000880040F00400C1F88800FFF7AFFF03487B
:1009900000F010F800BD00000010024000440040CC
:1009A000642242430723B2FBF3F100BF4A1E111E2B
:1009B000FCD17047016821F001010160016821F05C
:1009C00010210160016821F400410160416821F4B7
:1009D0004051416042F28D01C160016841F00C015B
:1009E00001601E4988421BD1016841F0200101606D
:1009F000016821F040010160016821F010010160EF
:100A0000016821F080010160016821F480710160BA
:100A1000016821F040010160016821F001010160DD
:100A20000F49884209D1016A41F0400101620D4934
:100A3000096841F0C0010B4A1160016841F00101F1
:100A4000016000BFC16901F400110029FAD000BFA4
:100A5000C16901F480010029FAD07047004C0040C0
:100A60000044004008380140014600BFC86900F05A
:100A700020000028FAD0888CC0B27047F0B5044638
:100A80000E46174600250CE000BFE06900F080002C
:100A90000028FAD0705D20854FF49670FFF780FF34
:100AA0006D1CBD42F0D300BFE06900F0400000289B
:100AB000FAD0E06920F04000E061F0BDFEB50546E7
:100AC0000E46002701242DE055F82400002828D0E8
:100AD000002000900190029014480068021914A1AF
:100AE0006846FFF7F1FB082212A11548FFF7C6FF81
:100AF0000A2269461248FFF7C1FF002000900190CA
:100B0000029055F824200AA16846FFF7DDFB092270
:100B10000CA10B48FFF7B2FF0A2269460848FFF70D
:100B2000ADFF641CB442CFDD3846FEBD000000209E
:100B3000257500000D0A54696D653A20000000001B
:100B4000004400402020436F756E743A200000007E
:100B50003EB500240020009001900290134814A19B
:100B600002686846FFF7B0FB0F2212A11548FFF795
:100B700085FF0A2269461348FFF780FF12480CA13F
:100B800002686846FFF7A0FB0F2210A10D48FFF78F
:100B900075FF0A2269460B48FFF770FF02220FA17A
:100BA0000848FFF76BFF20463EBD00000000002014
:100BB000257500000D0A4C6F776572206C696D69B0
:100BC000743A2000004400400400002009095570D8
:100BD000706572206C696D69743A20000D0A00001E
:100BE00000F07CF8FFF7B4FF05E000F07BF900F0BF
:100BF000F3F900F0A3F8F8E74FF08040006A20F026
:100C000001004FF0804108620846806920F003002F
:100C100088610846806940F0010088610846806963
:100C200020F0F00088610846006A20F00A0008629F
:100C30000846006A40F00100086270470C48C06C2A
:100C400040F001000A49C8644FF09040006820F06D
:100C500001004FF0904108600846006840F0020033
:100C600008600846006A40F0010008627047000012
:100C70000010024000B50648806D40F001000449B4
:100C800088654F2089048862FFF765FD00BD00007C
:100C90000010024000B5FFF7EDFFFFF7CFFFFFF7B1
:100CA000ABFF00BD4FF08040406B70474FF080407D
:100CB000006900F0020070474FF08040006840F08B
:100CC00001004FF08041086070474FF0804000689D
:100CD00000204FF0804108607047000040F2B630BD
:100CE0000349086040F21A4002490860704700005A
:100CF000000000200400002010B50024FFF734FDA0
:100D0000FFF72EFEFFF7C6FF00F056F80446002C52
:100D100006DA0F2204A10848FFF7B0FE002010BD3C
:100D2000FFF75EFF0020FAE74572726F72206F6373
:100D300063757265640D0A00004400402DE9F041BE
:100D4000E6B0002700240025A04600264FF4CA7113
:100D500001A8FFF775FBFFF7AFFF1DE0FFF7A6FF48
:100D60000746CFB1022C03DAFFF79CFF804612E062
:100D7000FFF798FF0546A5EB0806A8460D48006852
:100D8000301A01A951F82000401C0A490968711A5B
:100D900001AA42F82100641C40F2EA308442DDDB03
:100DA000FFF793FF652101A8FFF788FE66B0BDE855
:100DB000F0810000000000202DE9F041002600270E
:100DC0000025A846FFF778FF122225A12948FFF742
:100DD00055FEFFF76BFF064635E03EB10F2226A118
:100DE0002448FFF74BFE4FF001082CE0022D21DADA
:100DF000342225A11F48FFF741FE1E48FFF734FEAD
:100E000004464E2C01D06E2C07D109222BA1194883
:100E1000FFF734FE4FF0FF371CE0592C01D0792C3E
:100E200011D1072228A11348FFF728FEFFF73EFF44
:100E3000064608E0022D06DD112225A10D48FFF728
:100E40001DFE6FF00107B8F1000F03D128466D1C9D
:100E50000328C2DB00BFFFF738FF3846BDE8F0814A
:100E60005374617274696E6720504F53542E2E2E46
:100E70000D0A000000440040504F5354207061732D
:100E80007365640D0A000000496E707574206E6F02
:100E9000742064657465637465642E205072657394
:100EA00073205920746F2072657472792C204E2043
:100EB000746F20657869742E0D0A00004578697496
:100EC000696E670D0A00000052657472790D0A00A0
:100ED0004661696C65642E2045786974696E670D9A
:100EE0000A000000FEB500270026182222A129488A
:100EF000FFF7C4FD2748FFF7B7FD04464E2C37D057
:100F00006E2C35D0592C01D0792C31D1142222A14C
:100F10002048FFF7B3FD06E01E48FFF7A5FD044695
:100F20000DF80640761C0D2CF6D100200DF80600B9
:100F30000A2200216846FFF74BFA0546322D0AD3F4
:100F400042F2DE60854206D81948056000686430C8
:100F5000184908600CE01E2217A10E48FFF78EFD0D
:100F600040F2B6301249086040F21A401149086058
:100F7000FFF7EEFD3846FEBD0D0A4368616E6765FA
:100F8000206C696D6974733F2028592F4E290D0A12
:100F90000000000000440040456E746572206C6FD4
:100FA000776572206C696D69743A0D0A0000000063
:100FB00000000020040000204572726F722E205540
:100FC00073696E672064656661756C742076616C08
:100FD0007565730D0A00000010B5162205A10B48B7
:100FE000FFF74CFD03E00948FFF73EFD04460D2CDA
:100FF000F9D110BD507265737320456E746572200F
:10100000746F2073746172740D0A00000044004014
:1010100010B500290AD00878002807D00548784480
:10102000FFF752FB002801D0002010BD0248784491
:1010300010BD00004A000000420000004FF0407068
:10104000E1EE100A7047000078110008000000204F
:1010500008000000C40100088011000808000020FA
:1010600060060000E00100081001000043000000DD
:10107000F8FFFFFF004040404040404040404141B9
:10108000414141404040404040404040404040405D
:1010900040404040400502020202020202020202F7
:1010A00002020202022020202020202020202002F4
:1010B0000202020202029090909090901010101084
:1010C0001010101010101010101010101010101020
:1010D00002020202020288888888888808080808B4
:1010E0000808080808080808080808080808080880
:1010F00002020202400000000000000000000000A8
:1011000000000000000000000000000000000000DF
:1011100000000000000000000000000000000000CF
:1011200000000000000000000000000000000000BF
:1011300000000000000000000000000000000000AF
:10114000000000000000000000000000000000009F
:10115000000000000000000000000000000000008F
:10116000000000000000000000000000000000007F
:10117000000000000000000000000000000000006F
:040000050800018965
:00000001FF
